{
  "_format": "hh-sol-artifact-1",
  "contractName": "ENS721Mapper",
  "sourceName": "contracts/ENS721Mapper.sol",
  "abi": [
    {
      "inputs": [],
      "stateMutability": "nonpayable",
      "type": "constructor"
    },
    {
      "anonymous": false,
      "inputs": [
        {
          "indexed": true,
          "internalType": "address",
          "name": "previousOwner",
          "type": "address"
        },
        {
          "indexed": true,
          "internalType": "address",
          "name": "newOwner",
          "type": "address"
        }
      ],
      "name": "OwnershipTransferred",
      "type": "event"
    },
    {
      "anonymous": false,
      "inputs": [
        {
          "indexed": true,
          "internalType": "address",
          "name": "registrar",
          "type": "address"
        },
        {
          "indexed": true,
          "internalType": "uint256",
          "name": "token_id",
          "type": "uint256"
        },
        {
          "indexed": true,
          "internalType": "string",
          "name": "label",
          "type": "string"
        }
      ],
      "name": "RegisterSubdomain",
      "type": "event"
    },
    {
      "anonymous": false,
      "inputs": [
        {
          "indexed": true,
          "internalType": "bytes32",
          "name": "node",
          "type": "bytes32"
        },
        {
          "indexed": true,
          "internalType": "string",
          "name": "indexedKey",
          "type": "string"
        },
        {
          "indexed": false,
          "internalType": "string",
          "name": "key",
          "type": "string"
        }
      ],
      "name": "TextChanged",
      "type": "event"
    },
    {
      "inputs": [
        {
          "internalType": "address[]",
          "name": "addresses",
          "type": "address[]"
        }
      ],
      "name": "addAddressWhitelist",
      "outputs": [],
      "stateMutability": "nonpayable",
      "type": "function"
    },
    {
      "inputs": [
        {
          "internalType": "bytes32",
          "name": "nodeID",
          "type": "bytes32"
        }
      ],
      "name": "addr",
      "outputs": [
        {
          "internalType": "address",
          "name": "",
          "type": "address"
        }
      ],
      "stateMutability": "view",
      "type": "function"
    },
    {
      "inputs": [
        {
          "internalType": "address",
          "name": "",
          "type": "address"
        }
      ],
      "name": "address_whitelist",
      "outputs": [
        {
          "internalType": "bool",
          "name": "",
          "type": "bool"
        }
      ],
      "stateMutability": "view",
      "type": "function"
    },
    {
      "inputs": [],
      "name": "claimFee",
      "outputs": [
        {
          "internalType": "uint256",
          "name": "",
          "type": "uint256"
        }
      ],
      "stateMutability": "view",
      "type": "function"
    },
    {
      "inputs": [],
      "name": "domainHash",
      "outputs": [
        {
          "internalType": "bytes32",
          "name": "",
          "type": "bytes32"
        }
      ],
      "stateMutability": "view",
      "type": "function"
    },
    {
      "inputs": [],
      "name": "domainLabel",
      "outputs": [
        {
          "internalType": "string",
          "name": "",
          "type": "string"
        }
      ],
      "stateMutability": "view",
      "type": "function"
    },
    {
      "inputs": [
        {
          "internalType": "string",
          "name": "label",
          "type": "string"
        }
      ],
      "name": "domainMap",
      "outputs": [
        {
          "internalType": "bytes32",
          "name": "",
          "type": "bytes32"
        }
      ],
      "stateMutability": "view",
      "type": "function"
    },
    {
      "inputs": [
        {
          "internalType": "string",
          "name": "label",
          "type": "string"
        },
        {
          "internalType": "uint256",
          "name": "token_id",
          "type": "uint256"
        }
      ],
      "name": "feeSetDomain",
      "outputs": [],
      "stateMutability": "payable",
      "type": "function"
    },
    {
      "inputs": [
        {
          "internalType": "address",
          "name": "addy",
          "type": "address"
        }
      ],
      "name": "getClaimableIdsForAddress",
      "outputs": [
        {
          "internalType": "uint256[]",
          "name": "",
          "type": "uint256[]"
        }
      ],
      "stateMutability": "view",
      "type": "function"
    },
    {
      "inputs": [
        {
          "internalType": "uint256[]",
          "name": "token_ids",
          "type": "uint256[]"
        }
      ],
      "name": "getTokensDomains",
      "outputs": [
        {
          "internalType": "string[]",
          "name": "",
          "type": "string[]"
        }
      ],
      "stateMutability": "view",
      "type": "function"
    },
    {
      "inputs": [
        {
          "internalType": "address",
          "name": "addy",
          "type": "address"
        }
      ],
      "name": "getTweaksWithDomains",
      "outputs": [
        {
          "internalType": "uint256[]",
          "name": "",
          "type": "uint256[]"
        }
      ],
      "stateMutability": "view",
      "type": "function"
    },
    {
      "inputs": [
        {
          "internalType": "bytes32",
          "name": "",
          "type": "bytes32"
        }
      ],
      "name": "hashToDomainMap",
      "outputs": [
        {
          "internalType": "string",
          "name": "",
          "type": "string"
        }
      ],
      "stateMutability": "view",
      "type": "function"
    },
    {
      "inputs": [
        {
          "internalType": "bytes32",
          "name": "",
          "type": "bytes32"
        }
      ],
      "name": "hashToIdMap",
      "outputs": [
        {
          "internalType": "uint256",
          "name": "",
          "type": "uint256"
        }
      ],
      "stateMutability": "view",
      "type": "function"
    },
    {
      "inputs": [
        {
          "internalType": "bytes32",
          "name": "node",
          "type": "bytes32"
        }
      ],
      "name": "name",
      "outputs": [
        {
          "internalType": "string",
          "name": "",
          "type": "string"
        }
      ],
      "stateMutability": "view",
      "type": "function"
    },
    {
      "inputs": [
        {
          "internalType": "address",
          "name": "",
          "type": "address"
        },
        {
          "internalType": "uint256",
          "name": "",
          "type": "uint256"
        }
      ],
      "name": "nextRegisterTimestamp",
      "outputs": [
        {
          "internalType": "uint256",
          "name": "",
          "type": "uint256"
        }
      ],
      "stateMutability": "view",
      "type": "function"
    },
    {
      "inputs": [],
      "name": "nft",
      "outputs": [
        {
          "internalType": "contract IERC721Enumerable",
          "name": "",
          "type": "address"
        }
      ],
      "stateMutability": "view",
      "type": "function"
    },
    {
      "inputs": [],
      "name": "nftImageBaseUri",
      "outputs": [
        {
          "internalType": "string",
          "name": "",
          "type": "string"
        }
      ],
      "stateMutability": "view",
      "type": "function"
    },
    {
      "inputs": [],
      "name": "owner",
      "outputs": [
        {
          "internalType": "address",
          "name": "",
          "type": "address"
        }
      ],
      "stateMutability": "view",
      "type": "function"
    },
    {
      "inputs": [],
      "name": "publicClaimOpen",
      "outputs": [
        {
          "internalType": "bool",
          "name": "",
          "type": "bool"
        }
      ],
      "stateMutability": "view",
      "type": "function"
    },
    {
      "inputs": [],
      "name": "renounceOwnership",
      "outputs": [],
      "stateMutability": "nonpayable",
      "type": "function"
    },
    {
      "inputs": [
        {
          "internalType": "address",
          "name": "addy",
          "type": "address"
        },
        {
          "internalType": "uint256",
          "name": "token_id",
          "type": "uint256"
        }
      ],
      "name": "resetAddressForClaim",
      "outputs": [],
      "stateMutability": "nonpayable",
      "type": "function"
    },
    {
      "inputs": [
        {
          "internalType": "uint256",
          "name": "token_id",
          "type": "uint256"
        }
      ],
      "name": "resetDomainForToken",
      "outputs": [],
      "stateMutability": "nonpayable",
      "type": "function"
    },
    {
      "inputs": [],
      "name": "reset_period",
      "outputs": [
        {
          "internalType": "uint256",
          "name": "",
          "type": "uint256"
        }
      ],
      "stateMutability": "view",
      "type": "function"
    },
    {
      "inputs": [
        {
          "internalType": "uint256",
          "name": "fee",
          "type": "uint256"
        }
      ],
      "name": "setClaimFee",
      "outputs": [],
      "stateMutability": "nonpayable",
      "type": "function"
    },
    {
      "inputs": [
        {
          "internalType": "string",
          "name": "label",
          "type": "string"
        },
        {
          "internalType": "uint256",
          "name": "token_id",
          "type": "uint256"
        }
      ],
      "name": "setDomain",
      "outputs": [],
      "stateMutability": "nonpayable",
      "type": "function"
    },
    {
      "inputs": [
        {
          "internalType": "string",
          "name": "label",
          "type": "string"
        }
      ],
      "name": "setDomainLabel",
      "outputs": [],
      "stateMutability": "nonpayable",
      "type": "function"
    },
    {
      "inputs": [
        {
          "internalType": "address",
          "name": "addy",
          "type": "address"
        }
      ],
      "name": "setEnsAddress",
      "outputs": [],
      "stateMutability": "nonpayable",
      "type": "function"
    },
    {
      "inputs": [
        {
          "internalType": "address",
          "name": "addy",
          "type": "address"
        }
      ],
      "name": "setNftAddress",
      "outputs": [],
      "stateMutability": "nonpayable",
      "type": "function"
    },
    {
      "inputs": [
        {
          "internalType": "string",
          "name": "_uri",
          "type": "string"
        }
      ],
      "name": "setNftImageBaseUri",
      "outputs": [],
      "stateMutability": "nonpayable",
      "type": "function"
    },
    {
      "inputs": [
        {
          "internalType": "bytes32",
          "name": "node",
          "type": "bytes32"
        },
        {
          "internalType": "string",
          "name": "key",
          "type": "string"
        },
        {
          "internalType": "string",
          "name": "value",
          "type": "string"
        }
      ],
      "name": "setText",
      "outputs": [],
      "stateMutability": "nonpayable",
      "type": "function"
    },
    {
      "inputs": [
        {
          "internalType": "bytes4",
          "name": "interfaceID",
          "type": "bytes4"
        }
      ],
      "name": "supportsInterface",
      "outputs": [
        {
          "internalType": "bool",
          "name": "",
          "type": "bool"
        }
      ],
      "stateMutability": "pure",
      "type": "function"
    },
    {
      "inputs": [
        {
          "internalType": "bytes32",
          "name": "node",
          "type": "bytes32"
        },
        {
          "internalType": "string",
          "name": "key",
          "type": "string"
        }
      ],
      "name": "text",
      "outputs": [
        {
          "internalType": "string",
          "name": "",
          "type": "string"
        }
      ],
      "stateMutability": "view",
      "type": "function"
    },
    {
      "inputs": [
        {
          "internalType": "bytes32",
          "name": "",
          "type": "bytes32"
        },
        {
          "internalType": "string",
          "name": "",
          "type": "string"
        }
      ],
      "name": "texts",
      "outputs": [
        {
          "internalType": "string",
          "name": "",
          "type": "string"
        }
      ],
      "stateMutability": "view",
      "type": "function"
    },
    {
      "inputs": [],
      "name": "toggleNftImageLink",
      "outputs": [],
      "stateMutability": "nonpayable",
      "type": "function"
    },
    {
      "inputs": [],
      "name": "togglePublicClaim",
      "outputs": [],
      "stateMutability": "nonpayable",
      "type": "function"
    },
    {
      "inputs": [
        {
          "internalType": "uint256",
          "name": "",
          "type": "uint256"
        }
      ],
      "name": "tokenHashmap",
      "outputs": [
        {
          "internalType": "bytes32",
          "name": "",
          "type": "bytes32"
        }
      ],
      "stateMutability": "view",
      "type": "function"
    },
    {
      "inputs": [
        {
          "internalType": "address",
          "name": "newOwner",
          "type": "address"
        }
      ],
      "name": "transferOwnership",
      "outputs": [],
      "stateMutability": "nonpayable",
      "type": "function"
    },
    {
      "inputs": [
        {
          "internalType": "uint256",
          "name": "time",
          "type": "uint256"
        }
      ],
      "name": "updateResetPeriod",
      "outputs": [],
      "stateMutability": "nonpayable",
      "type": "function"
    },
    {
      "inputs": [],
      "name": "useEIP155",
      "outputs": [
        {
          "internalType": "bool",
          "name": "",
          "type": "bool"
        }
      ],
      "stateMutability": "view",
      "type": "function"
    },
    {
      "inputs": [],
      "name": "withdraw",
      "outputs": [],
      "stateMutability": "nonpayable",
      "type": "function"
    },
    {
      "inputs": [
        {
          "internalType": "contract IERC20",
          "name": "token",
          "type": "address"
        }
      ],
      "name": "withdrawTokens",
      "outputs": [],
      "stateMutability": "nonpayable",
      "type": "function"
    }
  ],
  "bytecode": "0x60806040526040518060400160405280600581526020017f747765616b000000000000000000000000000000000000000000000000000000815250600690805190602001906200005192919062000335565b50604051806060016040528060368152602001620060c060369139600790805190602001906200008392919062000335565b506001600860006101000a81548160ff021916908315150217905550626ebe00600c556002600d556001600e60006101000a81548160ff021916908315150217905550348015620000d357600080fd5b50620000f4620000e8620001b560201b60201c565b620001bd60201b60201c565b6e0c2e074ec69a0dfb2997ba6c7d2e1e600160006101000a81548173ffffffffffffffffffffffffffffffffffffffff021916908373ffffffffffffffffffffffffffffffffffffffff160217905550732589382740f0fcca04945792688bdc210b524825600260006101000a81548173ffffffffffffffffffffffffffffffffffffffff021916908373ffffffffffffffffffffffffffffffffffffffff160217905550620001a96200028160201b60201c565b600381905550620005d4565b600033905090565b60008060009054906101000a900473ffffffffffffffffffffffffffffffffffffffff169050816000806101000a81548173ffffffffffffffffffffffffffffffffffffffff021916908373ffffffffffffffffffffffffffffffffffffffff1602179055508173ffffffffffffffffffffffffffffffffffffffff168173ffffffffffffffffffffffffffffffffffffffff167f8be0079c531659141344cd1fd0a4f28419497f9722a3daafe3b4186f6b6457e060405160405180910390a35050565b60008060001b9050806040516020016200029b90620004fb565b60405160208183030381529060405280519060200120604051602001620002c4929190620004b2565b604051602081830303815290604052805190602001209050806006604051602001620002f19190620004e2565b604051602081830303815290604052805190602001206040516020016200031a929190620004b2565b60405160208183030381529060405280519060200120905090565b82805462000343906200053c565b90600052602060002090601f016020900481019282620003675760008555620003b3565b82601f106200038257805160ff1916838001178555620003b3565b82800160010185558215620003b3579182015b82811115620003b257825182559160200191906001019062000395565b5b509050620003c29190620003c6565b5090565b5b80821115620003e1576000816000905550600101620003c7565b5090565b620003fa620003f48262000532565b62000572565b82525050565b600081546200040f816200053c565b6200041b818662000527565b945060018216600081146200043957600181146200044b5762000482565b60ff1983168652818601935062000482565b620004568562000512565b60005b838110156200047a5781548189015260018201915060208101905062000459565b838801955050505b50505092915050565b60006200049a60038362000527565b9150620004a782620005ab565b600382019050919050565b6000620004c08285620003e5565b602082019150620004d28284620003e5565b6020820191508190509392505050565b6000620004f0828462000400565b915081905092915050565b600062000508826200048b565b9150819050919050565b60008190508160005260206000209050919050565b600081905092915050565b6000819050919050565b600060028204905060018216806200055557607f821691505b602082108114156200056c576200056b6200057c565b5b50919050565b6000819050919050565b7f4e487b7100000000000000000000000000000000000000000000000000000000600052602260045260246000fd5b7f6574680000000000000000000000000000000000000000000000000000000000600082015250565b615adc80620005e46000396000f3fe6080604052600436106102465760003560e01c80638da5cb5b11610139578063c074c3da116100b6578063ea5822c61161007a578063ea5822c6146108a3578063f2fde38b146108e0578063f4ffa31c14610909578063f5958ee814610920578063f7569f9c1461095d578063fd6f73641461098857610246565b8063c074c3da146107c0578063c230af74146107fd578063d890582f14610826578063df46d7a61461084f578063dfe86ac51461087857610246565b8063a9e18272116100fd578063a9e18272146106d9578063abcec0a2146106f0578063b63bcfc61461072d578063b97a305914610758578063bcbe0e3c1461079557610246565b80638da5cb5b146105de578063957b069f146106095780639741cbff1461064657806399d32fc414610683578063a449329c146106ae57610246565b80634f1050d3116101c7578063691f34311161018b578063691f3431146104fb578063715018a61461053857806371a93fb51461054f578063731fa5c2146105785780638082995c146105a157610246565b80634f1050d3146104115780635287ea5e1461042d57806358b79b621461045657806359d1d43c1461048157806362b683a0146104be57610246565b80633ccfd60b1161020e5780633ccfd60b14610340578063428cfb201461035757806347329f611461039457806347ccca02146103bd57806349df728c146103e857610246565b806301ffc9a71461024b5780630b102d1a1461028857806310f13a8c146102b15780632e75ab50146102da5780633b3b57de14610303575b600080fd5b34801561025757600080fd5b50610272600480360381019061026d9190614670565b6109b1565b60405161027f9190614ef7565b60405180910390f35b34801561029457600080fd5b506102af60048036038101906102aa91906143d5565b610a73565b005b3480156102bd57600080fd5b506102d860048036038101906102d39190614593565b610b33565b005b3480156102e657600080fd5b5061030160048036038101906102fc91906147a0565b610e40565b005b34801561030f57600080fd5b5061032a60048036038101906103259190614512565b610ec6565b6040516103379190614e6f565b60405180910390f35b34801561034c57600080fd5b50610355610ff7565b005b34801561036357600080fd5b5061037e60048036038101906103799190614512565b6110c2565b60405161038b9190614fbf565b60405180910390f35b3480156103a057600080fd5b506103bb60048036038101906103b691906146c2565b611162565b005b3480156103c957600080fd5b506103d2611202565b6040516103df9190614f80565b60405180910390f35b3480156103f457600080fd5b5061040f600480360381019061040a9190614699565b611228565b005b61042b60048036038101906104269190614707565b6113fd565b005b34801561043957600080fd5b50610454600480360381019061044f91906143d5565b6115a8565b005b34801561046257600080fd5b5061046b611668565b6040516104789190614ef7565b60405180910390f35b34801561048d57600080fd5b506104a860048036038101906104a3919061453b565b61167b565b6040516104b59190614fbf565b60405180910390f35b3480156104ca57600080fd5b506104e560048036038101906104e091906143d5565b6118b0565b6040516104f29190614ed5565b60405180910390f35b34801561050757600080fd5b50610522600480360381019061051d9190614512565b611c3a565b60405161052f9190614fbf565b60405180910390f35b34801561054457600080fd5b5061054d611ca9565b005b34801561055b57600080fd5b5061057660048036038101906105719190614463565b611d70565b005b34801561058457600080fd5b5061059f600480360381019061059a919061475f565b611eb7565b005b3480156105ad57600080fd5b506105c860048036038101906105c39190614427565b611f4d565b6040516105d59190615161565b60405180910390f35b3480156105ea57600080fd5b506105f3611f72565b6040516106009190614e6f565b60405180910390f35b34801561061557600080fd5b50610630600480360381019061062b91906143d5565b611f9b565b60405161063d9190614ed5565b60405180910390f35b34801561065257600080fd5b5061066d60048036038101906106689190614512565b6120cb565b60405161067a9190615161565b60405180910390f35b34801561068f57600080fd5b506106986120e3565b6040516106a59190615161565b60405180910390f35b3480156106ba57600080fd5b506106c36120e9565b6040516106d09190615161565b60405180910390f35b3480156106e557600080fd5b506106ee6120ef565b005b3480156106fc57600080fd5b50610717600480360381019061071291906147a0565b612197565b6040516107249190614f12565b60405180910390f35b34801561073957600080fd5b506107426121af565b60405161074f9190614ef7565b60405180910390f35b34801561076457600080fd5b5061077f600480360381019061077a91906143d5565b6121c2565b60405161078c9190614ef7565b60405180910390f35b3480156107a157600080fd5b506107aa6121e2565b6040516107b79190614fbf565b60405180910390f35b3480156107cc57600080fd5b506107e760048036038101906107e291906146c2565b612270565b6040516107f49190614f12565b60405180910390f35b34801561080957600080fd5b50610824600480360381019061081f91906147a0565b6122fd565b005b34801561083257600080fd5b5061084d60048036038101906108489190614707565b6126bf565b005b34801561085b57600080fd5b50610876600480360381019061087191906147a0565b612eab565b005b34801561088457600080fd5b5061088d612f31565b60405161089a9190614f12565b60405180910390f35b3480156108af57600080fd5b506108ca60048036038101906108c5919061461c565b612f37565b6040516108d79190614fbf565b60405180910390f35b3480156108ec57600080fd5b50610907600480360381019061090291906143d5565b612ffa565b005b34801561091557600080fd5b5061091e6130f2565b005b34801561092c57600080fd5b50610947600480360381019061094291906144a8565b61319a565b6040516109549190614eb3565b60405180910390f35b34801561096957600080fd5b506109726132cb565b60405161097f9190614fbf565b60405180910390f35b34801561099457600080fd5b506109af60048036038101906109aa9190614427565b613359565b005b6000633b3b57de60e01b827bffffffffffffffffffffffffffffffffffffffffffffffffffffffff19161480610a0c57506359d1d43c60e01b827bffffffffffffffffffffffffffffffffffffffffffffffffffffffff1916145b80610a3c575063691f343160e01b827bffffffffffffffffffffffffffffffffffffffffffffffffffffffff1916145b80610a6c57506301ffc9a760e01b827bffffffffffffffffffffffffffffffffffffffffffffffffffffffff1916145b9050919050565b610a7b61342f565b73ffffffffffffffffffffffffffffffffffffffff16610a99611f72565b73ffffffffffffffffffffffffffffffffffffffff1614610aef576040517f08c379a0000000000000000000000000000000000000000000000000000000008152600401610ae690615101565b60405180910390fd5b80600260006101000a81548173ffffffffffffffffffffffffffffffffffffffff021916908373ffffffffffffffffffffffffffffffffffffffff16021790555050565b60096000868152602001908152602001600020543373ffffffffffffffffffffffffffffffffffffffff16610b66611f72565b73ffffffffffffffffffffffffffffffffffffffff161480610c5d57503373ffffffffffffffffffffffffffffffffffffffff16600260009054906101000a900473ffffffffffffffffffffffffffffffffffffffff1673ffffffffffffffffffffffffffffffffffffffff16636352211e836040518263ffffffff1660e01b8152600401610bf59190615161565b60206040518083038186803b158015610c0d57600080fd5b505afa158015610c21573d6000803e3d6000fd5b505050506040513d601f19601f82011682018060405250810190610c4591906143fe565b73ffffffffffffffffffffffffffffffffffffffff16145b610c9c576040517f08c379a0000000000000000000000000000000000000000000000000000000008152600401610c9390615061565b60405180910390fd5b600060096000888152602001908152602001600020549050600081118015610cda57506000801b600a60008381526020019081526020016000205414155b610d19576040517f08c379a0000000000000000000000000000000000000000000000000000000008152600401610d1090614fe1565b60405180910390fd5b7fd1f86c93d831119ad98fe983e643a7431e4ac992e3ead6e3007f4dd1adf663438686604051602001610d4d929190614d87565b604051602081830303815290604052805190602001201415610da4576040517f08c379a0000000000000000000000000000000000000000000000000000000008152600401610d9b906150a1565b60405180910390fd5b8383600460008a81526020019081526020016000208888604051610dc9929190614d87565b90815260200160405180910390209190610de4929190614072565b508585604051610df5929190614d87565b6040518091039020877fd8c9334b1a9c2f9da342a0a2b32629c1a229b6445dad78947f674b44444a75508888604051610e2f929190614f9b565b60405180910390a350505050505050565b610e4861342f565b73ffffffffffffffffffffffffffffffffffffffff16610e66611f72565b73ffffffffffffffffffffffffffffffffffffffff1614610ebc576040517f08c379a0000000000000000000000000000000000000000000000000000000008152600401610eb390615101565b60405180910390fd5b80600d8190555050565b60008060096000848152602001908152602001600020549050600081118015610f0557506000801b600a60008381526020019081526020016000205414155b610f44576040517f08c379a0000000000000000000000000000000000000000000000000000000008152600401610f3b90614fe1565b60405180910390fd5b600260009054906101000a900473ffffffffffffffffffffffffffffffffffffffff1673ffffffffffffffffffffffffffffffffffffffff16636352211e826040518263ffffffff1660e01b8152600401610f9f9190615161565b60206040518083038186803b158015610fb757600080fd5b505afa158015610fcb573d6000803e3d6000fd5b505050506040513d601f19601f82011682018060405250810190610fef91906143fe565b915050919050565b610fff61342f565b73ffffffffffffffffffffffffffffffffffffffff1661101d611f72565b73ffffffffffffffffffffffffffffffffffffffff1614611073576040517f08c379a000000000000000000000000000000000000000000000000000000000815260040161106a90615101565b60405180910390fd5b60004790503373ffffffffffffffffffffffffffffffffffffffff166108fc829081150290604051600060405180830381858888f193505050501580156110be573d6000803e3d6000fd5b5050565b600b60205280600052604060002060009150905080546110e1906154ee565b80601f016020809104026020016040519081016040528092919081815260200182805461110d906154ee565b801561115a5780601f1061112f5761010080835404028352916020019161115a565b820191906000526020600020905b81548152906001019060200180831161113d57829003601f168201915b505050505081565b61116a61342f565b73ffffffffffffffffffffffffffffffffffffffff16611188611f72565b73ffffffffffffffffffffffffffffffffffffffff16146111de576040517f08c379a00000000000000000000000000000000000000000000000000000000081526004016111d590615101565b60405180910390fd5b8181600691906111ef929190614072565b506111f8613437565b6003819055505050565b600260009054906101000a900473ffffffffffffffffffffffffffffffffffffffff1681565b61123061342f565b73ffffffffffffffffffffffffffffffffffffffff1661124e611f72565b73ffffffffffffffffffffffffffffffffffffffff16146112a4576040517f08c379a000000000000000000000000000000000000000000000000000000000815260040161129b90615101565b60405180910390fd5b600073ffffffffffffffffffffffffffffffffffffffff168173ffffffffffffffffffffffffffffffffffffffff1614156112de57600080fd5b60008173ffffffffffffffffffffffffffffffffffffffff166370a08231306040518263ffffffff1660e01b81526004016113199190614e6f565b60206040518083038186803b15801561133157600080fd5b505afa158015611345573d6000803e3d6000fd5b505050506040513d601f19601f8201168201806040525081019061136991906147c9565b90508173ffffffffffffffffffffffffffffffffffffffff1663a9059cbb33836040518363ffffffff1660e01b81526004016113a6929190614e8a565b602060405180830381600087803b1580156113c057600080fd5b505af11580156113d4573d6000803e3d6000fd5b505050506040513d601f19601f820116820180604052508101906113f891906144e9565b505050565b803373ffffffffffffffffffffffffffffffffffffffff1661141d611f72565b73ffffffffffffffffffffffffffffffffffffffff16148061151457503373ffffffffffffffffffffffffffffffffffffffff16600260009054906101000a900473ffffffffffffffffffffffffffffffffffffffff1673ffffffffffffffffffffffffffffffffffffffff16636352211e836040518263ffffffff1660e01b81526004016114ac9190615161565b60206040518083038186803b1580156114c457600080fd5b505afa1580156114d8573d6000803e3d6000fd5b505050506040513d601f19601f820116820180604052508101906114fc91906143fe565b73ffffffffffffffffffffffffffffffffffffffff16145b611553576040517f08c379a000000000000000000000000000000000000000000000000000000000815260040161154a90615061565b60405180910390fd5b600d543411611597576040517f08c379a000000000000000000000000000000000000000000000000000000000815260040161158e90615081565b60405180910390fd5b6115a28484846126bf565b50505050565b6115b061342f565b73ffffffffffffffffffffffffffffffffffffffff166115ce611f72565b73ffffffffffffffffffffffffffffffffffffffff1614611624576040517f08c379a000000000000000000000000000000000000000000000000000000000815260040161161b90615101565b60405180910390fd5b80600160006101000a81548173ffffffffffffffffffffffffffffffffffffffff021916908373ffffffffffffffffffffffffffffffffffffffff16021790555050565b600860009054906101000a900460ff1681565b60606000600960008681526020019081526020016000205490506000811180156116bb57506000801b600a60008381526020019081526020016000205414155b6116fa576040517f08c379a00000000000000000000000000000000000000000000000000000000081526004016116f190614fe1565b60405180910390fd5b7fd1f86c93d831119ad98fe983e643a7431e4ac992e3ead6e3007f4dd1adf66343848460405160200161172e929190614d87565b6040516020818303038152906040528051906020012014156117eb57600860009054906101000a900460ff1661178e576007611769826134e3565b60405160200161177a929190614db7565b6040516020818303038152906040526117e3565b6117b9600260009054906101000a900473ffffffffffffffffffffffffffffffffffffffff16613690565b6117c2826134e3565b6040516020016117d3929190614e35565b6040516020818303038152906040525b9150506118a9565b60046000868152602001908152602001600020848460405161180e929190614d87565b90815260200160405180910390208054611827906154ee565b80601f0160208091040260200160405190810160405280929190818152602001828054611853906154ee565b80156118a05780601f10611875576101008083540402835291602001916118a0565b820191906000526020600020905b81548152906001019060200180831161188357829003601f168201915b50505050509150505b9392505050565b60606000600260009054906101000a900473ffffffffffffffffffffffffffffffffffffffff1673ffffffffffffffffffffffffffffffffffffffff166370a08231846040518263ffffffff1660e01b815260040161190f9190614e6f565b60206040518083038186803b15801561192757600080fd5b505afa15801561193b573d6000803e3d6000fd5b505050506040513d601f19601f8201168201806040525081019061195f91906147c9565b905060008167ffffffffffffffff8111156119a3577f4e487b7100000000000000000000000000000000000000000000000000000000600052604160045260246000fd5b6040519080825280602002602001820160405280156119d15781602001602082028036833780820191505090505b5090506000805b83811015611b15576000600260009054906101000a900473ffffffffffffffffffffffffffffffffffffffff1673ffffffffffffffffffffffffffffffffffffffff16632f745c5988846040518363ffffffff1660e01b8152600401611a3f929190614e8a565b60206040518083038186803b158015611a5757600080fd5b505afa158015611a6b573d6000803e3d6000fd5b505050506040513d601f19601f82011682018060405250810190611a8f91906147c9565b90506000801b600a60008381526020019081526020016000205414611b015780848480611abb90615551565b955081518110611af4577f4e487b7100000000000000000000000000000000000000000000000000000000600052603260045260246000fd5b6020026020010181815250505b508080611b0d90615551565b9150506119d8565b5060008167ffffffffffffffff811115611b58577f4e487b7100000000000000000000000000000000000000000000000000000000600052604160045260246000fd5b604051908082528060200260200182016040528015611b865781602001602082028036833780820191505090505b50905060005b82811015611c2d57838181518110611bcd577f4e487b7100000000000000000000000000000000000000000000000000000000600052603260045260246000fd5b6020026020010151828281518110611c0e577f4e487b7100000000000000000000000000000000000000000000000000000000600052603260045260246000fd5b6020026020010181815250508080611c2590615551565b915050611b8c565b5080945050505050919050565b60606000600960008481526020019081526020016000205414611c9157600b60008381526020019081526020016000206006604051602001611c7d929190614de6565b604051602081830303815290604052611ca2565b604051806020016040528060008152505b9050919050565b611cb161342f565b73ffffffffffffffffffffffffffffffffffffffff16611ccf611f72565b73ffffffffffffffffffffffffffffffffffffffff1614611d25576040517f08c379a0000000000000000000000000000000000000000000000000000000008152600401611d1c90615101565b60405180910390fd5b6000611d66576040517f08c379a0000000000000000000000000000000000000000000000000000000008152600401611d5d90615041565b60405180910390fd5b611d6e613af1565b565b611d7861342f565b73ffffffffffffffffffffffffffffffffffffffff16611d96611f72565b73ffffffffffffffffffffffffffffffffffffffff1614611dec576040517f08c379a0000000000000000000000000000000000000000000000000000000008152600401611de390615101565b60405180910390fd5b60005b82829050811015611eb2576001600f6000858585818110611e39577f4e487b7100000000000000000000000000000000000000000000000000000000600052603260045260246000fd5b9050602002016020810190611e4e91906143d5565b73ffffffffffffffffffffffffffffffffffffffff1673ffffffffffffffffffffffffffffffffffffffff16815260200190815260200160002060006101000a81548160ff0219169083151502179055508080611eaa90615551565b915050611def565b505050565b611ebf61342f565b73ffffffffffffffffffffffffffffffffffffffff16611edd611f72565b73ffffffffffffffffffffffffffffffffffffffff1614611f33576040517f08c379a0000000000000000000000000000000000000000000000000000000008152600401611f2a90615101565b60405180910390fd5b8060079080519060200190611f499291906140f8565b5050565b6005602052816000526040600020602052806000526040600020600091509150505481565b60008060009054906101000a900473ffffffffffffffffffffffffffffffffffffffff16905090565b6060600f60008373ffffffffffffffffffffffffffffffffffffffff1673ffffffffffffffffffffffffffffffffffffffff16815260200190815260200160002060009054906101000a900460ff16806120015750600e60009054906101000a900460ff165b8061203e57508173ffffffffffffffffffffffffffffffffffffffff16612026611f72565b73ffffffffffffffffffffffffffffffffffffffff16145b156120535761204c82613b79565b90506120c6565b600067ffffffffffffffff811115612094577f4e487b7100000000000000000000000000000000000000000000000000000000600052604160045260246000fd5b6040519080825280602002602001820160405280156120c25781602001602082028036833780820191505090505b5090505b919050565b60096020528060005260406000206000915090505481565b600d5481565b600c5481565b6120f761342f565b73ffffffffffffffffffffffffffffffffffffffff16612115611f72565b73ffffffffffffffffffffffffffffffffffffffff161461216b576040517f08c379a000000000000000000000000000000000000000000000000000000000815260040161216290615101565b60405180910390fd5b600860009054906101000a900460ff1615600860006101000a81548160ff021916908315150217905550565b600a6020528060005260406000206000915090505481565b600e60009054906101000a900460ff1681565b600f6020528060005260406000206000915054906101000a900460ff1681565b600680546121ef906154ee565b80601f016020809104026020016040519081016040528092919081815260200182805461221b906154ee565b80156122685780601f1061223d57610100808354040283529160200191612268565b820191906000526020600020905b81548152906001019060200180831161224b57829003601f168201915b505050505081565b6000808383604051602001612286929190614d87565b6040516020818303038152906040528051906020012090506000600354826040516020016122b5929190614d5b565b60405160208183030381529060405280519060200120905060006009600083815260200190815260200160002054116122f1576000801b6122f3565b805b9250505092915050565b803373ffffffffffffffffffffffffffffffffffffffff1661231d611f72565b73ffffffffffffffffffffffffffffffffffffffff16148061241457503373ffffffffffffffffffffffffffffffffffffffff16600260009054906101000a900473ffffffffffffffffffffffffffffffffffffffff1673ffffffffffffffffffffffffffffffffffffffff16636352211e836040518263ffffffff1660e01b81526004016123ac9190615161565b60206040518083038186803b1580156123c457600080fd5b505afa1580156123d8573d6000803e3d6000fd5b505050506040513d601f19601f820116820180604052508101906123fc91906143fe565b73ffffffffffffffffffffffffffffffffffffffff16145b612453576040517f08c379a000000000000000000000000000000000000000000000000000000000815260040161244a90615061565b60405180910390fd5b6000600a6000848152602001908152602001600020549050600160009054906101000a900473ffffffffffffffffffffffffffffffffffffffff1673ffffffffffffffffffffffffffffffffffffffff1663f79fe538826040518263ffffffff1660e01b81526004016124c69190614f12565b60206040518083038186803b1580156124de57600080fd5b505afa1580156124f2573d6000803e3d6000fd5b505050506040513d601f19601f8201168201806040525081019061251691906144e9565b612555576040517f08c379a000000000000000000000000000000000000000000000000000000000815260040161254c906150e1565b60405180910390fd5b60405180602001604052806000815250600b6000838152602001908152602001600020908051906020019061258b9291906140f8565b50600060096000838152602001908152602001600020819055506000801b600a60008581526020019081526020016000208190555042600560003373ffffffffffffffffffffffffffffffffffffffff1673ffffffffffffffffffffffffffffffffffffffff1681526020019081526020016000206000858152602001908152602001600020541180156126525750612622611f72565b73ffffffffffffffffffffffffffffffffffffffff163373ffffffffffffffffffffffffffffffffffffffff1614155b156126ba576107084261266591906152bd565b600560003373ffffffffffffffffffffffffffffffffffffffff1673ffffffffffffffffffffffffffffffffffffffff1681526020019081526020016000206000858152602001908152602001600020819055505b505050565b803373ffffffffffffffffffffffffffffffffffffffff166126df611f72565b73ffffffffffffffffffffffffffffffffffffffff1614806127d657503373ffffffffffffffffffffffffffffffffffffffff16600260009054906101000a900473ffffffffffffffffffffffffffffffffffffffff1673ffffffffffffffffffffffffffffffffffffffff16636352211e836040518263ffffffff1660e01b815260040161276e9190615161565b60206040518083038186803b15801561278657600080fd5b505afa15801561279a573d6000803e3d6000fd5b505050506040513d601f19601f820116820180604052508101906127be91906143fe565b73ffffffffffffffffffffffffffffffffffffffff16145b612815576040517f08c379a000000000000000000000000000000000000000000000000000000000815260040161280c90615061565b60405180910390fd5b6000801b600a6000848152602001908152602001600020541461286d576040517f08c379a000000000000000000000000000000000000000000000000000000000815260040161286490615141565b60405180910390fd5b600f60003373ffffffffffffffffffffffffffffffffffffffff1673ffffffffffffffffffffffffffffffffffffffff16815260200190815260200160002060009054906101000a900460ff16806128d15750600e60009054906101000a900460ff165b8061290e57503373ffffffffffffffffffffffffffffffffffffffff166128f6611f72565b73ffffffffffffffffffffffffffffffffffffffff16145b61294d576040517f08c379a000000000000000000000000000000000000000000000000000000000815260040161294490615061565b60405180910390fd5b600560003373ffffffffffffffffffffffffffffffffffffffff1673ffffffffffffffffffffffffffffffffffffffff16815260200190815260200160002060008381526020019081526020016000205442116129df576040517f08c379a00000000000000000000000000000000000000000000000000000000081526004016129d690615121565b60405180910390fd5b600084846040516020016129f4929190614d87565b604051602081830303815290604052805190602001209050600060035482604051602001612a23929190614d5b565b604051602081830303815290604052805190602001209050600160009054906101000a900473ffffffffffffffffffffffffffffffffffffffff1673ffffffffffffffffffffffffffffffffffffffff1663f79fe538826040518263ffffffff1660e01b8152600401612a969190614f12565b60206040518083038186803b158015612aae57600080fd5b505afa158015612ac2573d6000803e3d6000fd5b505050506040513d601f19601f82011682018060405250810190612ae691906144e9565b1580612b245750612af5611f72565b73ffffffffffffffffffffffffffffffffffffffff163373ffffffffffffffffffffffffffffffffffffffff16145b612b63576040517f08c379a0000000000000000000000000000000000000000000000000000000008152600401612b5a90615021565b60405180910390fd5b600160009054906101000a900473ffffffffffffffffffffffffffffffffffffffff1673ffffffffffffffffffffffffffffffffffffffff16635ef2c7f060035484612bad611f72565b3060006040518663ffffffff1660e01b8152600401612bd0959493929190614f2d565b600060405180830381600087803b158015612bea57600080fd5b505af1158015612bfe573d6000803e3d6000fd5b5050505083600960008381526020019081526020016000208190555080600a6000868152602001908152602001600020819055508585600b60008481526020019081526020016000209190612c54929190614072565b503373ffffffffffffffffffffffffffffffffffffffff16612c74611f72565b73ffffffffffffffffffffffffffffffffffffffff1614612d9d57600c5442612c9d91906152bd565b600560003373ffffffffffffffffffffffffffffffffffffffff1673ffffffffffffffffffffffffffffffffffffffff168152602001908152602001600020600086815260200190815260200160002081905550600f60003373ffffffffffffffffffffffffffffffffffffffff1673ffffffffffffffffffffffffffffffffffffffff16815260200190815260200160002060009054906101000a900460ff1615612d9c576000600f60003373ffffffffffffffffffffffffffffffffffffffff1673ffffffffffffffffffffffffffffffffffffffff16815260200190815260200160002060006101000a81548160ff0219169083151502179055505b5b8585604051612dad929190614d87565b604051809103902084600260009054906101000a900473ffffffffffffffffffffffffffffffffffffffff1673ffffffffffffffffffffffffffffffffffffffff16636352211e876040518263ffffffff1660e01b8152600401612e119190615161565b60206040518083038186803b158015612e2957600080fd5b505afa158015612e3d573d6000803e3d6000fd5b505050506040513d601f19601f82011682018060405250810190612e6191906143fe565b73ffffffffffffffffffffffffffffffffffffffff167fa16b10a6d8a8b7e20fab669fb2b5acd39c210216e639cdd3190a0c1fe2b7cc7b60405160405180910390a4505050505050565b612eb361342f565b73ffffffffffffffffffffffffffffffffffffffff16612ed1611f72565b73ffffffffffffffffffffffffffffffffffffffff1614612f27576040517f08c379a0000000000000000000000000000000000000000000000000000000008152600401612f1e90615101565b60405180910390fd5b80600c8190555050565b60035481565b600460205281600052604060002081805160208101820180518482526020830160208501208183528095505050505050600091509150508054612f79906154ee565b80601f0160208091040260200160405190810160405280929190818152602001828054612fa5906154ee565b8015612ff25780601f10612fc757610100808354040283529160200191612ff2565b820191906000526020600020905b815481529060010190602001808311612fd557829003601f168201915b505050505081565b61300261342f565b73ffffffffffffffffffffffffffffffffffffffff16613020611f72565b73ffffffffffffffffffffffffffffffffffffffff1614613076576040517f08c379a000000000000000000000000000000000000000000000000000000000815260040161306d90615101565b60405180910390fd5b600073ffffffffffffffffffffffffffffffffffffffff168173ffffffffffffffffffffffffffffffffffffffff1614156130e6576040517f08c379a00000000000000000000000000000000000000000000000000000000081526004016130dd90615001565b60405180910390fd5b6130ef81613f04565b50565b6130fa61342f565b73ffffffffffffffffffffffffffffffffffffffff16613118611f72565b73ffffffffffffffffffffffffffffffffffffffff161461316e576040517f08c379a000000000000000000000000000000000000000000000000000000000815260040161316590615101565b60405180910390fd5b600e60009054906101000a900460ff1615600e60006101000a81548160ff021916908315150217905550565b60606000825167ffffffffffffffff8111156131df577f4e487b7100000000000000000000000000000000000000000000000000000000600052604160045260246000fd5b60405190808252806020026020018201604052801561321257816020015b60608152602001906001900390816131fd5790505b50905060005b83518110156132c15761326a84828151811061325d577f4e487b7100000000000000000000000000000000000000000000000000000000600052603260045260246000fd5b6020026020010151613fc8565b8282815181106132a3577f4e487b7100000000000000000000000000000000000000000000000000000000600052603260045260246000fd5b602002602001018190525080806132b990615551565b915050613218565b5080915050919050565b600780546132d8906154ee565b80601f0160208091040260200160405190810160405280929190818152602001828054613304906154ee565b80156133515780601f1061332657610100808354040283529160200191613351565b820191906000526020600020905b81548152906001019060200180831161333457829003601f168201915b505050505081565b61336161342f565b73ffffffffffffffffffffffffffffffffffffffff1661337f611f72565b73ffffffffffffffffffffffffffffffffffffffff16146133d5576040517f08c379a00000000000000000000000000000000000000000000000000000000081526004016133cc90615101565b60405180910390fd5b6000600560008473ffffffffffffffffffffffffffffffffffffffff1673ffffffffffffffffffffffffffffffffffffffff1681526020019081526020016000206000838152602001908152602001600020819055505050565b600033905090565b60008060001b90508060405160200161344f90614e20565b60405160208183030381529060405280519060200120604051602001613476929190614d5b565b6040516020818303038152906040528051906020012090508060066040516020016134a19190614da0565b604051602081830303815290604052805190602001206040516020016134c8929190614d5b565b60405160208183030381529060405280519060200120905090565b6060600082141561352b576040518060400160405280600181526020017f3000000000000000000000000000000000000000000000000000000000000000815250905061368b565b600082905060005b6000821461355d57808061354690615551565b915050600a826135569190615313565b9150613533565b60008167ffffffffffffffff81111561359f577f4e487b7100000000000000000000000000000000000000000000000000000000600052604160045260246000fd5b6040519080825280601f01601f1916602001820160405280156135d15781602001600182028036833780820191505090505b5090505b60008514613684576001826135ea919061539e565b9150600a856135f991906155a4565b603061360591906152bd565b60f81b818381518110613641577f4e487b7100000000000000000000000000000000000000000000000000000000600052603260045260246000fd5b60200101907effffffffffffffffffffffffffffffffffffffffffffffffffffffffffffff1916908160001a905350600a8561367d9190615313565b94506135d5565b8093505050505b919050565b606060008273ffffffffffffffffffffffffffffffffffffffff1660001b905060006040518060400160405280601081526020017f303132333435363738396162636465660000000000000000000000000000000081525090506000603367ffffffffffffffff81111561372d577f4e487b7100000000000000000000000000000000000000000000000000000000600052604160045260246000fd5b6040519080825280601f01601f19166020018201604052801561375f5781602001600182028036833780820191505090505b5090507f3000000000000000000000000000000000000000000000000000000000000000816000815181106137bd577f4e487b7100000000000000000000000000000000000000000000000000000000600052603260045260246000fd5b60200101907effffffffffffffffffffffffffffffffffffffffffffffffffffffffffffff1916908160001a9053507f780000000000000000000000000000000000000000000000000000000000000081600181518110613847577f4e487b7100000000000000000000000000000000000000000000000000000000600052603260045260246000fd5b60200101907effffffffffffffffffffffffffffffffffffffffffffffffffffffffffffff1916908160001a90535060005b6014811015613ae55782600485600c8461389391906152bd565b602081106138ca577f4e487b7100000000000000000000000000000000000000000000000000000000600052603260045260246000fd5b1a60f81b7effffffffffffffffffffffffffffffffffffffffffffffffffffffffffffff1916901c60f81c60ff168151811061392f577f4e487b7100000000000000000000000000000000000000000000000000000000600052603260045260246000fd5b602001015160f81c60f81b826002836139489190615344565b600261395491906152bd565b8151811061398b577f4e487b7100000000000000000000000000000000000000000000000000000000600052603260045260246000fd5b60200101907effffffffffffffffffffffffffffffffffffffffffffffffffffffffffffff1916908160001a90535082600f60f81b85600c846139ce91906152bd565b60208110613a05577f4e487b7100000000000000000000000000000000000000000000000000000000600052603260045260246000fd5b1a60f81b1660f81c60ff1681518110613a47577f4e487b7100000000000000000000000000000000000000000000000000000000600052603260045260246000fd5b602001015160f81c60f81b82600283613a609190615344565b6003613a6c91906152bd565b81518110613aa3577f4e487b7100000000000000000000000000000000000000000000000000000000600052603260045260246000fd5b60200101907effffffffffffffffffffffffffffffffffffffffffffffffffffffffffffff1916908160001a9053508080613add90615551565b915050613879565b50809350505050919050565b613af961342f565b73ffffffffffffffffffffffffffffffffffffffff16613b17611f72565b73ffffffffffffffffffffffffffffffffffffffff1614613b6d576040517f08c379a0000000000000000000000000000000000000000000000000000000008152600401613b6490615101565b60405180910390fd5b613b776000613f04565b565b60606000600260009054906101000a900473ffffffffffffffffffffffffffffffffffffffff1673ffffffffffffffffffffffffffffffffffffffff166370a08231846040518263ffffffff1660e01b8152600401613bd89190614e6f565b60206040518083038186803b158015613bf057600080fd5b505afa158015613c04573d6000803e3d6000fd5b505050506040513d601f19601f82011682018060405250810190613c2891906147c9565b905060008167ffffffffffffffff811115613c6c577f4e487b7100000000000000000000000000000000000000000000000000000000600052604160045260246000fd5b604051908082528060200260200182016040528015613c9a5781602001602082028036833780820191505090505b5090506000805b83811015613ddf576000600260009054906101000a900473ffffffffffffffffffffffffffffffffffffffff1673ffffffffffffffffffffffffffffffffffffffff16632f745c5988846040518363ffffffff1660e01b8152600401613d08929190614e8a565b60206040518083038186803b158015613d2057600080fd5b505afa158015613d34573d6000803e3d6000fd5b505050506040513d601f19601f82011682018060405250810190613d5891906147c9565b90506000801b600a6000838152602001908152602001600020541415613dcb5780848480613d8590615551565b955081518110613dbe577f4e487b7100000000000000000000000000000000000000000000000000000000600052603260045260246000fd5b6020026020010181815250505b508080613dd790615551565b915050613ca1565b5060008167ffffffffffffffff811115613e22577f4e487b7100000000000000000000000000000000000000000000000000000000600052604160045260246000fd5b604051908082528060200260200182016040528015613e505781602001602082028036833780820191505090505b50905060005b82811015613ef757838181518110613e97577f4e487b7100000000000000000000000000000000000000000000000000000000600052603260045260246000fd5b6020026020010151828281518110613ed8577f4e487b7100000000000000000000000000000000000000000000000000000000600052603260045260246000fd5b6020026020010181815250508080613eef90615551565b915050613e56565b5080945050505050919050565b60008060009054906101000a900473ffffffffffffffffffffffffffffffffffffffff169050816000806101000a81548173ffffffffffffffffffffffffffffffffffffffff021916908373ffffffffffffffffffffffffffffffffffffffff1602179055508173ffffffffffffffffffffffffffffffffffffffff168173ffffffffffffffffffffffffffffffffffffffff167f8be0079c531659141344cd1fd0a4f28419497f9722a3daafe3b4186f6b6457e060405160405180910390a35050565b60606000801b600a6000848152602001908152602001600020541415614023576040517f08c379a000000000000000000000000000000000000000000000000000000000815260040161401a906150c1565b60405180910390fd5b600b6000600a6000858152602001908152602001600020548152602001908152602001600020600660405160200161405c929190614de6565b6040516020818303038152906040529050919050565b82805461407e906154ee565b90600052602060002090601f0160209004810192826140a057600085556140e7565b82601f106140b957803560ff19168380011785556140e7565b828001600101855582156140e7579182015b828111156140e65782358255916020019190600101906140cb565b5b5090506140f4919061417e565b5090565b828054614104906154ee565b90600052602060002090601f016020900481019282614126576000855561416d565b82601f1061413f57805160ff191683800117855561416d565b8280016001018555821561416d579182015b8281111561416c578251825591602001919060010190614151565b5b50905061417a919061417e565b5090565b5b8082111561419757600081600090555060010161417f565b5090565b60006141ae6141a9846151a1565b61517c565b905080838252602082019050828560208602820111156141cd57600080fd5b60005b858110156141fd57816141e388826143ab565b8452602084019350602083019250506001810190506141d0565b5050509392505050565b600061421a614215846151cd565b61517c565b90508281526020810184848401111561423257600080fd5b61423d8482856154ac565b509392505050565b60008135905061425481615a1c565b92915050565b60008151905061426981615a1c565b92915050565b60008083601f84011261428157600080fd5b8235905067ffffffffffffffff81111561429a57600080fd5b6020830191508360208202830111156142b257600080fd5b9250929050565b600082601f8301126142ca57600080fd5b81356142da84826020860161419b565b91505092915050565b6000815190506142f281615a33565b92915050565b60008135905061430781615a4a565b92915050565b60008135905061431c81615a61565b92915050565b60008135905061433181615a78565b92915050565b60008083601f84011261434957600080fd5b8235905067ffffffffffffffff81111561436257600080fd5b60208301915083600182028301111561437a57600080fd5b9250929050565b600082601f83011261439257600080fd5b81356143a2848260208601614207565b91505092915050565b6000813590506143ba81615a8f565b92915050565b6000815190506143cf81615a8f565b92915050565b6000602082840312156143e757600080fd5b60006143f584828501614245565b91505092915050565b60006020828403121561441057600080fd5b600061441e8482850161425a565b91505092915050565b6000806040838503121561443a57600080fd5b600061444885828601614245565b9250506020614459858286016143ab565b9150509250929050565b6000806020838503121561447657600080fd5b600083013567ffffffffffffffff81111561449057600080fd5b61449c8582860161426f565b92509250509250929050565b6000602082840312156144ba57600080fd5b600082013567ffffffffffffffff8111156144d457600080fd5b6144e0848285016142b9565b91505092915050565b6000602082840312156144fb57600080fd5b6000614509848285016142e3565b91505092915050565b60006020828403121561452457600080fd5b6000614532848285016142f8565b91505092915050565b60008060006040848603121561455057600080fd5b600061455e868287016142f8565b935050602084013567ffffffffffffffff81111561457b57600080fd5b61458786828701614337565b92509250509250925092565b6000806000806000606086880312156145ab57600080fd5b60006145b9888289016142f8565b955050602086013567ffffffffffffffff8111156145d657600080fd5b6145e288828901614337565b9450945050604086013567ffffffffffffffff81111561460157600080fd5b61460d88828901614337565b92509250509295509295909350565b6000806040838503121561462f57600080fd5b600061463d858286016142f8565b925050602083013567ffffffffffffffff81111561465a57600080fd5b61466685828601614381565b9150509250929050565b60006020828403121561468257600080fd5b60006146908482850161430d565b91505092915050565b6000602082840312156146ab57600080fd5b60006146b984828501614322565b91505092915050565b600080602083850312156146d557600080fd5b600083013567ffffffffffffffff8111156146ef57600080fd5b6146fb85828601614337565b92509250509250929050565b60008060006040848603121561471c57600080fd5b600084013567ffffffffffffffff81111561473657600080fd5b61474286828701614337565b93509350506020614755868287016143ab565b9150509250925092565b60006020828403121561477157600080fd5b600082013567ffffffffffffffff81111561478b57600080fd5b61479784828501614381565b91505092915050565b6000602082840312156147b257600080fd5b60006147c0848285016143ab565b91505092915050565b6000602082840312156147db57600080fd5b60006147e9848285016143c0565b91505092915050565b60006147fe83836149a5565b905092915050565b60006148128383614d3d565b60208301905092915050565b614827816153d2565b82525050565b600061483882615233565b614842818561526e565b935083602082028501614854856151fe565b8060005b85811015614890578484038952815161487185826147f2565b945061487c83615254565b925060208a01995050600181019050614858565b50829750879550505050505092915050565b60006148ad8261523e565b6148b7818561527f565b93506148c28361520e565b8060005b838110156148f35781516148da8882614806565b97506148e583615261565b9250506001810190506148c6565b5085935050505092915050565b614909816153e4565b82525050565b614918816153f0565b82525050565b61492f61492a826153f0565b61559a565b82525050565b61493e81615476565b82525050565b61494d8161549a565b82525050565b600061495f83856152a1565b935061496c8385846154ac565b61497583615691565b840190509392505050565b600061498c83856152b2565b93506149998385846154ac565b82840190509392505050565b60006149b082615249565b6149ba8185615290565b93506149ca8185602086016154bb565b6149d381615691565b840191505092915050565b60006149e982615249565b6149f381856152a1565b9350614a038185602086016154bb565b614a0c81615691565b840191505092915050565b6000614a2282615249565b614a2c81856152b2565b9350614a3c8185602086016154bb565b80840191505092915050565b60008154614a55816154ee565b614a5f81866152b2565b94506001821660008114614a7a5760018114614a8b57614abe565b60ff19831686528186019350614abe565b614a948561521e565b60005b83811015614ab657815481890152600182019150602081019050614a97565b838801955050505b50505092915050565b6000614ad4600f836152a1565b9150614adf826156a2565b602082019050919050565b6000614af76026836152a1565b9150614b02826156cb565b604082019050919050565b6000614b1a6019836152a1565b9150614b258261571a565b602082019050919050565b6000614b3d6026836152a1565b9150614b4882615743565b604082019050919050565b6000614b606004836152b2565b9150614b6b82615792565b600482019050919050565b6000614b83600e836152a1565b9150614b8e826157bb565b602082019050919050565b6000614ba66004836152b2565b9150614bb1826157e4565b600482019050919050565b6000614bc96003836152b2565b9150614bd48261580d565b600382019050919050565b6000614bec601c836152a1565b9150614bf782615836565b602082019050919050565b6000614c0f6010836152b2565b9150614c1a8261585f565b601082019050919050565b6000614c326001836152b2565b9150614c3d82615888565b600182019050919050565b6000614c556011836152a1565b9150614c60826158b1565b602082019050919050565b6000614c786023836152a1565b9150614c83826158da565b604082019050919050565b6000614c9b6019836152a1565b9150614ca682615929565b602082019050919050565b6000614cbe6020836152a1565b9150614cc982615952565b602082019050919050565b6000614ce16026836152a1565b9150614cec8261597b565b604082019050919050565b6000614d04601a836152a1565b9150614d0f826159ca565b602082019050919050565b6000614d276001836152b2565b9150614d32826159f3565b600182019050919050565b614d4681615458565b82525050565b614d5581615458565b82525050565b6000614d67828561491e565b602082019150614d77828461491e565b6020820191508190509392505050565b6000614d94828486614980565b91508190509392505050565b6000614dac8284614a48565b915081905092915050565b6000614dc38285614a48565b9150614dcf8284614a17565b9150614dda82614b53565b91508190509392505050565b6000614df28285614a48565b9150614dfd82614c25565b9150614e098284614a48565b9150614e1482614b99565b91508190509392505050565b6000614e2b82614bbc565b9150819050919050565b6000614e4082614c02565b9150614e4c8285614a17565b9150614e5782614d1a565b9150614e638284614a17565b91508190509392505050565b6000602082019050614e84600083018461481e565b92915050565b6000604082019050614e9f600083018561481e565b614eac6020830184614d4c565b9392505050565b60006020820190508181036000830152614ecd818461482d565b905092915050565b60006020820190508181036000830152614eef81846148a2565b905092915050565b6000602082019050614f0c6000830184614900565b92915050565b6000602082019050614f27600083018461490f565b92915050565b600060a082019050614f42600083018861490f565b614f4f602083018761490f565b614f5c604083018661481e565b614f69606083018561481e565b614f766080830184614944565b9695505050505050565b6000602082019050614f956000830184614935565b92915050565b60006020820190508181036000830152614fb6818486614953565b90509392505050565b60006020820190508181036000830152614fd981846149de565b905092915050565b60006020820190508181036000830152614ffa81614ac7565b9050919050565b6000602082019050818103600083015261501a81614aea565b9050919050565b6000602082019050818103600083015261503a81614b0d565b9050919050565b6000602082019050818103600083015261505a81614b30565b9050919050565b6000602082019050818103600083015261507a81614b76565b9050919050565b6000602082019050818103600083015261509a81614bdf565b9050919050565b600060208201905081810360008301526150ba81614c48565b9050919050565b600060208201905081810360008301526150da81614c6b565b9050919050565b600060208201905081810360008301526150fa81614c8e565b9050919050565b6000602082019050818103600083015261511a81614cb1565b9050919050565b6000602082019050818103600083015261513a81614cd4565b9050919050565b6000602082019050818103600083015261515a81614cf7565b9050919050565b60006020820190506151766000830184614d4c565b92915050565b6000615186615197565b90506151928282615520565b919050565b6000604051905090565b600067ffffffffffffffff8211156151bc576151bb615662565b5b602082029050602081019050919050565b600067ffffffffffffffff8211156151e8576151e7615662565b5b6151f182615691565b9050602081019050919050565b6000819050602082019050919050565b6000819050602082019050919050565b60008190508160005260206000209050919050565b600081519050919050565b600081519050919050565b600081519050919050565b6000602082019050919050565b6000602082019050919050565b600082825260208201905092915050565b600082825260208201905092915050565b600082825260208201905092915050565b600082825260208201905092915050565b600081905092915050565b60006152c882615458565b91506152d383615458565b9250827fffffffffffffffffffffffffffffffffffffffffffffffffffffffffffffffff03821115615308576153076155d5565b5b828201905092915050565b600061531e82615458565b915061532983615458565b92508261533957615338615604565b5b828204905092915050565b600061534f82615458565b915061535a83615458565b9250817fffffffffffffffffffffffffffffffffffffffffffffffffffffffffffffffff0483118215151615615393576153926155d5565b5b828202905092915050565b60006153a982615458565b91506153b483615458565b9250828210156153c7576153c66155d5565b5b828203905092915050565b60006153dd82615438565b9050919050565b60008115159050919050565b6000819050919050565b60007fffffffff0000000000000000000000000000000000000000000000000000000082169050919050565b6000615431826153d2565b9050919050565b600073ffffffffffffffffffffffffffffffffffffffff82169050919050565b6000819050919050565b600067ffffffffffffffff82169050919050565b600061548182615488565b9050919050565b600061549382615438565b9050919050565b60006154a582615462565b9050919050565b82818337600083830152505050565b60005b838110156154d95780820151818401526020810190506154be565b838111156154e8576000848401525b50505050565b6000600282049050600182168061550657607f821691505b6020821081141561551a57615519615633565b5b50919050565b61552982615691565b810181811067ffffffffffffffff8211171561554857615547615662565b5b80604052505050565b600061555c82615458565b91507fffffffffffffffffffffffffffffffffffffffffffffffffffffffffffffffff82141561558f5761558e6155d5565b5b600182019050919050565b6000819050919050565b60006155af82615458565b91506155ba83615458565b9250826155ca576155c9615604565b5b828206905092915050565b7f4e487b7100000000000000000000000000000000000000000000000000000000600052601160045260246000fd5b7f4e487b7100000000000000000000000000000000000000000000000000000000600052601260045260246000fd5b7f4e487b7100000000000000000000000000000000000000000000000000000000600052602260045260246000fd5b7f4e487b7100000000000000000000000000000000000000000000000000000000600052604160045260246000fd5b6000601f19601f8301169050919050565b7f496e76616c696420616464726573730000000000000000000000000000000000600082015250565b7f4f776e61626c653a206e6577206f776e657220697320746865207a65726f206160008201527f6464726573730000000000000000000000000000000000000000000000000000602082015250565b7f7375622d646f6d61696e20616c72656164792065786973747300000000000000600082015250565b7f536f727279202d20796f752063616e6e6f742072656e6f756e6365206f776e6560008201527f72736869702e0000000000000000000000000000000000000000000000000000602082015250565b7f2e706e6700000000000000000000000000000000000000000000000000000000600082015250565b7f4e6f7420617574686f7269736564000000000000000000000000000000000000600082015250565b7f2e65746800000000000000000000000000000000000000000000000000000000600082015250565b7f6574680000000000000000000000000000000000000000000000000000000000600082015250565b7f6e6f7420656e6f756768204574682073656e7420746f20636c61696d00000000600082015250565b7f6569703135353a312f6572633732313a00000000000000000000000000000000600082015250565b7f2e00000000000000000000000000000000000000000000000000000000000000600082015250565b7f63616e6e6f742073657420617661746172000000000000000000000000000000600082015250565b7f546f6b656e20646f6573206e6f74206861766520616e20454e5320726567697360008201527f7465720000000000000000000000000000000000000000000000000000000000602082015250565b7f5375622d646f6d61696e20646f6573206e6f7420657869737400000000000000600082015250565b7f4f776e61626c653a2063616c6c6572206973206e6f7420746865206f776e6572600082015250565b7f57616c6c6574206d7573742077616974206d6f72652074696d6520746f20726560008201527f6769737465720000000000000000000000000000000000000000000000000000602082015250565b7f546f6b656e2068617320616c7265616479206265656e20736574000000000000600082015250565b7f2f00000000000000000000000000000000000000000000000000000000000000600082015250565b615a25816153d2565b8114615a3057600080fd5b50565b615a3c816153e4565b8114615a4757600080fd5b50565b615a53816153f0565b8114615a5e57600080fd5b50565b615a6a816153fa565b8114615a7557600080fd5b50565b615a8181615426565b8114615a8c57600080fd5b50565b615a9881615458565b8114615aa357600080fd5b5056fea26469706673582212206f6470fd82fa78eacc79fbdc5e02c16bf01d8edfb4edbe56cc50ebb903b51c1c64736f6c63430008040033697066733a2f2f516d64433854517350676d424b34313964444437586f763632444c547343575838377a5a504432576444505a4c782f",
  "linkReferences": {},
  "deployedLinkReferences": {}
}